:100000000C945D000C9485000C9485000C94850084
:100010000C9485000C9485000C9485000C9485004C
:100020000C9485000C9485000C9485000C94CE02F1
:100030000C9485000C9485000C9485000C9485002C
:100040000C9484020C9485000C9485000C9485001B
:100050000C9485000C9485000C9485000C9485000C
:100060000C9485000C9485000000000024002700FB
:100070002A0000000000250028002B0004040404CE
:100080000404040402020202020203030303030342
:10009000010204081020408001020408102001021F
:1000A00004081020000000080002010000030407FB
:1000B0000000000000000000EB0511241FBECFEF80
:1000C000D8E0DEBFCDBF11E0A0E0B1E0E4E0FDE0AC
:1000D00002C005900D92A030B107D9F721E0A0E051
:1000E000B1E001C01D92A734B207E1F710E0CDE501
:1000F000D0E004C02197FE010E947A06CC35D107DA
:10010000C9F70E94A5030C9480060C94000090E0AF
:10011000FC01EC55FF4F2491FC01E057FF4F349157
:10012000FC01E458FF4FE491EE23C9F0222339F09B
:10013000233001F1A8F4213019F1223029F1F0E047
:10014000EE0FFF1FEE58FF4FA591B4918FB7F894B3
:10015000EC91611126C030953E233C938FBF0895EA
:100160002730A9F02830C9F0243049F78091800069
:100170008F7D03C0809180008F7780938000DFCFD8
:1001800084B58F7784BDDBCF84B58F7DFBCF809125
:10019000B0008F778093B000D2CF8091B0008F7D78
:1001A000F9CF3E2BDACF3FB7F8948091430190917D
:1001B0004401A0914501B091460126B5A89B05C018
:1001C0002F3F19F00196A11DB11D3FBFBA2FA92FD6
:1001D000982F8827BC01CD01620F711D811D911DD3
:1001E00042E0660F771F881F991F4A95D1F708953F
:1001F0008F929F92AF92BF92CF92DF92EF92FF9237
:100200004B015C010E94D3006B017C010E94D30072
:100210006C197D098E099F09683E7340810591051F
:10022000A8F321E0821A9108A108B10888EEC80E4F
:1002300083E0D81EE11CF11C81149104A104B104D7
:1002400029F7FF90EF90DF90CF90BF90AF909F90F5
:100250008F900895CF92DF92EF92FF92CF93DF932A
:10026000EC01603282E07807CCF5653B710514F053
:1002700064EB70E0898128E830E0281B310987FDB4
:100280003395220F331F220F331F6901330FEE08FE
:10029000FF088A8128E532E0281B310987FD339564
:1002A000220F331F220F331F032E000C440B550B5C
:1002B0002C193D094E095F09DB0177FF02C0B0E050
:1002C000A0E00E94350624EB30E040E050E00E94C0
:1002D0000B06C20ED31EE41EF51EB601E881EC30FB
:1002E00070F5298188E890E0821B910927FD93959C
:1002F000880F991F880F991F681779077CF02A814A
:1003000088E592E0821B910927FD9395880F991F3C
:10031000880F991F681779070CF4CB010297880F93
:10032000991F4FB7F8942E2F30E0F901EE0FFF1F01
:10033000E20FF31FEE5FFE4F928381834FBFDF9189
:10034000CF91FF90EF90DF90CF900895CF93DF9300
:10035000DC018C918C3008F06DC0CB01FB01E057C3
:10036000FF4F249184589F4FFC018491882399F07A
:1003700090E0880F991FFC01E859FF4FC591D49177
:10038000FC01EE58FF4F859194918FB7F894E88166
:10039000E22BE8838FBF8C91282F30E0F901EE0F1C
:1003A000FF1FE20FF31FEE5FFE4F962F9F736081DA
:1003B000607C692B608311961C92119712961C9297
:1003C00012972CE0622F0E946E06829FB0011124CA
:1003D00030E020E0AB01420F531FFA01EE0FFF1F88
:1003E000E40FF51FEE5FFE4F908196FD16C02F5F64
:1003F0003F4F2C30310571F781110FC010928000F2
:1004000082E0809381001092850010928400B19A5E
:1004100080916F00826080936F00EC918E2F90E04E
:10042000FC01EE0FFF1FE80FF91FEE5FFE4F80810A
:10043000806480838C91DF91CF9108956AE570E0AC
:1004400082E391E00C942A016AE570E085E391E093
:100450000C942A016AE570E088E391E00C942A018B
:100460006AE570E08BE391E00C942A016CE370E0A4
:1004700082E391E00C942A016CE370E085E391E063
:100480000C942A016CE370E088E391E00C942A015B
:100490006CE370E08BE391E00C942A016AE570E074
:1004A00089E291E00E942A016AE570E08BE391E025
:1004B0000E942A016AE570E08FE291E00E942A0121
:1004C0006AE570E088E391E00E942A016AE570E045
:1004D00086E291E00E942A016AE570E085E391E0FE
:1004E0000E942A016AE570E08CE291E00E942A01F4
:1004F0006AE570E082E391E00E942A0164EF71E016
:1005000080E090E00C94F8001F920F920FB60F92CB
:1005100011242F933F938F939F93AF93BF93809119
:100520003F0190914001A0914101B0914201309171
:100530003E0123E0230F2D3758F50196A11DB11D73
:1005400020933E0180933F0190934001A09341018D
:10055000B09342018091430190914401A0914501E3
:10056000B09146010196A11DB11D80934301909366
:100570004401A0934501B0934601BF91AF919F9173
:100580008F913F912F910F900FBE0F901F90189554
:1005900026E8230F0296A11DB11DD2CF1F920F9204
:1005A0000FB60F9211242F933F934F935F936F9346
:1005B0007F938F939F93AF93BF93CF93DF93EF93EB
:1005C000FF9380910001C0910101D0E087FF24C01A
:1005D0001092850010928400809100018F5F8093BB
:1005E000000180910001082E000C990B8C179D07CB
:1005F00024F4809100018C30C4F1809184009091AA
:100600008500049680349C4908F47AC08091840067
:1006100090918500049676C080910001082E000C10
:10062000990B8C179D07C4F6E09100018E2FEE0FF9
:10063000990BFC01EE0FFF1FE80FF91FEE5FFE4F55
:10064000808186FFC9CFE09100018E2FEE0F990BBC
:10065000FC01EE0FFF1FE80FF91FEE5FFE4F8081D8
:1006600060E08F730E948700B7CF209184003091A3
:100670008500E09100018E2FEE0F990BFC01EE0F2B
:10068000FF1FE80FF91FEE5FFE4F81819281820FFD
:10069000931F9093890080938800E09100018E2F32
:1006A000EE0F990BFC01EE0FFF1FE80FF91FEE5F35
:1006B000FE4F808186FF11C0E09100018E2FEE0F6A
:1006C000990BFC01EE0FFF1FE80FF91FEE5FFE4FC5
:1006D000808161E08F730E948700FF91EF91DF912D
:1006E000CF91BF91AF919F918F917F916F915F91CA
:1006F0004F913F912F910F900FBE0F901F90189523
:1007000080E49CE990938900809388008FEF809328
:100710000001E3CFFC01909101019C3098F481E04D
:10072000890F809301019083892F90E0FC01EE0FE7
:10073000FF1FE80FF91FEE5FFE4F88EB9BE09283EF
:10074000818308958FEF80830895789484B58260C3
:1007500084BD84B5816084BD85B5826085BD85B565
:10076000816085BD80916E00816080936E001092E3
:10077000810080918100826080938100809181005E
:1007800081608093810080918000816080938000EF
:100790008091B10084608093B1008091B00081604D
:1007A0008093B00080917A00846080937A00809179
:1007B0007A00826080937A0080917A0081608093D1
:1007C0007A0080917A00806880937A001092C1004C
:1007D00066E170E089E291E00E94A60167E170E0C5
:1007E0008BE391E00E94A60168E170E08FE291E066
:1007F0000E94A60169E170E088E391E00E94A601F1
:100800006AE170E086E291E00E94A6016BE170E08F
:1008100085E391E00E94A6016CE170E08CE291E03A
:100820000E94A6016DE170E082E391E00E94A601C2
:100830000E944E0200E010E0C5E0D0E00E944802B5
:100840000E94360268EC70E080E090E00E94F800C0
:1008500066E470E089E291E00E942A0166E470E0BB
:100860008CE291E00E942A0168EC70E080E090E068
:100870000E94F8000E9430020E941E0268EC70E0A4
:1008800080E090E00E94F8000E9442020E943C0238
:1008900068EC70E080E090E00E94F8006EE670E0A6
:1008A0008FE291E00E942A016EE670E086E291E01C
:1008B0000E942A0168EC70E080E090E00E94F8005D
:1008C0000E942A020E94240268EC70E080E090E01E
:1008D0000E94F8006AE570E089E291E00E942A0136
:1008E0006AE570E08FE291E00E942A016AE570E01B
:1008F00086E291E00E942A016AE570E08CE291E0D4
:100900000E942A0168EC70E080E090E00E94F8000C
:10091000219709F093CF68EE73E080E090E00E94A9
:10092000F800C3E0D0E00E9448020E943C0268EC5C
:1009300070E080E090E00E94F8006CE370E089E2F3
:1009400091E00E942A016CE370E086E291E00E944F
:100950002A0168EC70E080E090E00E94F8000E94BC
:1009600030020E94240268EC70E080E090E00E9477
:10097000F8000E9442020E94360268EC70E080E0BB
:1009800090E00E94F80068E770E08FE291E00E943A
:100990002A0168E770E08CE291E00E942A0168EC8D
:1009A00070E080E090E00E94F8000E942A020E941D
:1009B0001E0268EC70E080E090E00E94F8000E9467
:1009C0004E02219709F0AFCF68EE73E080E090E02F
:1009D0000E94F800C5E0D0E00E9448020E94360262
:1009E00068EC70E080E090E00E94F8006EE670E055
:1009F00089E291E00E942A016EE670E08CE291E0CB
:100A00000E942A0168EC70E080E090E00E94F8000B
:100A10000E9430020E941E0268EC70E080E090E0CC
:100A20000E94F8000E9442020E943C0268EC70E0C2
:100A300080E090E00E94F80066E470E08FE291E0D0
:100A40000E942A0166E470E086E291E00E942A0199
:100A500068EC70E080E090E00E94F8000E942A02BA
:100A60000E94240268EC70E080E090E00E94F800B0
:100A70006AE570E089E291E00E942A016AE570E08F
:100A80008FE291E00E942A016AE570E086E291E03F
:100A90000E942A016AE570E08CE291E00E942A013E
:100AA00068EC70E080E090E00E94F800219709F087
:100AB00093CF68EE73E080E090E00E94F800C3E01E
:100AC000D0E00E9442020E94360268EC70E080E0B2
:100AD00090E00E94F8006CE370E08FE291E00E94E9
:100AE0002A016CE370E08CE291E00E942A0168EC3C
:100AF00070E080E090E00E94F8000E942A020E94CC
:100B00001E0268EC70E080E090E00E94F8000E9415
:100B100048020E943C0268EC70E080E090E00E9495
:100B2000F80068E770E089E291E00E942A0168E736
:100B300070E086E291E00E942A0168EC70E080E0BB
:100B400090E00E94F8000E9430020E94240268ECAB
:100B500070E080E090E00E94F8000E944E02219731
:100B600009F0AFCF68EE73E080E090E00E94F800FB
:100B700068E770E08BE391E00E942A0168E770E08B
:100B800088E391E00E942A0168E770E085E391E044
:100B90000E942A0168E770E082E391E00E942A0146
:100BA00064EF71E080E090E00E94F80060ED77E093
:100BB00080E090E00E94F8000E944E0260ED77E035
:100BC00080E090E00E94F8000115110509F434CE90
:100BD0000E94000031CE89E291E00E948A038BE3FB
:100BE00091E00E948A038FE291E00E948A0388E3E9
:100BF00091E00E948A0386E291E00E948A0385E3E5
:100C000091E00E948A038CE291E00E948A0382E3D1
:100C100091E00C948A03052E97FB1EF400940E9429
:100C2000220657FD07D00E943D0607FC03D04EF474
:100C30000C94220650954095309521953F4F4F4F8B
:100C40005F4F089590958095709561957F4F8F4F78
:100C50009F4F08950E945F06A59F900DB49F900D31
:100C6000A49F800D911D11240895B7FF0C942A06AE
:100C70000E942A06821B930B0895A1E21A2EAA1B3A
:100C8000BB1BFD010DC0AA1FBB1FEE1FFF1FA2173C
:100C9000B307E407F50720F0A21BB30BE40BF50B39
:100CA000661F771F881F991F1A9469F760957095C2
:100CB000809590959B01AC01BD01CF010895A29F45
:100CC000B001B39FC001A39F700D811D1124911D20
:100CD000B29F700D811D1124911D0895991B79E01B
:100CE00004C0991F961708F0961B881F7A95C9F7BC
:100CF00080950895EE0FFF1F0590F491E02D099463
:040D0000F894FFCF95
:00000001FF
