:100000000C945C000C946E000C946E000C946E00CA
:100010000C946E000C946E000C946E000C946E00A8
:100020000C946E000C946E000C946E000C946E0098
:100030000C946E000C946E000C946E000C946E0088
:100040000C946F010C946E000C946E000C946E0076
:100050000C946E000C946E000C946E000C946E0068
:100060000C946E000C946E00000000002400270029
:100070002A0000000000250028002B0004040404CE
:100080000404040402020202020203030303030342
:10009000010204081020408001020408102001021F
:1000A00004081020000000080002010000030407FB
:1000B000000000000000000011241FBECFEFD8E0B8
:1000C000DEBFCDBF21E0A0E0B1E001C01D92AB31A9
:1000D000B207E1F70E94B9010C94BF050C9400002F
:1000E00090E0FC01EC55FF4F2491FC01E057FF4FDD
:1000F0003491FC01E458FF4FE491EE23C9F0222330
:1001000039F0233001F1A8F4213019F1223029F11E
:10011000F0E0EE0FFF1FEE58FF4FA591B4918FB79F
:10012000F894EC91611126C030953E233C938FBF2B
:1001300008952730A9F02830C9F0243049F780917C
:1001400080008F7D03C0809180008F778093800036
:10015000DFCF84B58F7784BDDBCF84B58F7DFBCFB8
:100160008091B0008F778093B000D2CF8091B000A3
:100170008F7DF9CF3E2BDACFCF93DF9390E0FC0158
:10018000E057FF4F249184589F4FFC0184918823AE
:10019000D1F090E0880F991FFC01E859FF4FA5911D
:1001A000B491FC01EE58FF4FC591D49161110EC07E
:1001B0009FB7F8948C91E22FE0958E238C93288141
:1001C000E223E8839FBFDF91CF9108958FB7F89422
:1001D000EC91E22BEC938FBFF6CF1F93CF93DF937D
:1001E000182FEB0161E00E94BC00209739F460E019
:1001F000812FDF91CF911F910C947000CF3FD105DB
:1002000011F461E0F5CFE12FF0E0EC55FF4FE49100
:10021000E33031F140F4E130B1F0E230E1F0C038E8
:10022000D1057CF7E4CFE73029F1E83059F1E4302B
:10023000B1F780918000806280938000D0938B0022
:10024000C0938A0004C084B5806884BDC7BDDF91B7
:10025000CF911F91089584B5806284BDC8BDF7CF4A
:1002600080918000806880938000D0938900C09343
:100270008800EDCF8091B00080688093B000C0937B
:10028000B300E5CF8091B00080628093B000C0934E
:10029000B400DDCF3FB7F894809117019091180119
:1002A000A0911901B0911A0126B5A89B05C02F3F56
:1002B00019F00196A11DB11D3FBFBA2FA92F982F8C
:1002C0008827BC01CD01620F711D811D911D42E087
:1002D000660F771F881F991F4A95D1F708951F92BF
:1002E0000F920FB60F9211242F933F938F939F93EA
:1002F000AF93BF938091130190911401A0911501C8
:10030000B09116013091120123E0230F2D3758F5DB
:100310000196A11DB11D20931201809313019093AA
:100320001401A0931501B0931601809117019091CB
:100330001801A0911901B0911A010196A11DB11DDA
:100340008093170190931801A0931901B0931A019B
:10035000BF91AF919F918F913F912F910F900FBEC1
:100360000F901F90189526E8230F0296A11DB11D2E
:10037000D2CFCF93DF9300D000D0CDB7DEB7789443
:1003800084B5826084BD84B5816084BD85B582609A
:1003900085BD85B5816085BD80916E00816080934B
:1003A0006E001092810080918100826080938100B4
:1003B00080918100816080938100809180008160C4
:1003C000809380008091B10084608093B10080911F
:1003D000B00081608093B00080917A008460809347
:1003E0007A0080917A00826080937A0080917A000E
:1003F000816080937A0080917A00806880937A008F
:100400001092C10061E088E00E94BC0061E089E0D8
:100410000E94BC0061E08AE00E94BC0061E08BE0C9
:100420000E94BC0061E086E00E94BC0061E085E0C3
:100430000E94BC0060E08EE00E94BC002FB7F894E0
:100440008091130190911401A0911501B0911601B2
:100450002FBF80930E0190930F01A0931001B093D2
:10046000110190E4392E00E010E08FB7F894C090AD
:100470001301D0901401E0901501F09016018FBF88
:1004800080910E0190910F01A0911001B091110186
:10049000A7019601281B390B4A0B5B0BCA01B90156
:1004A0000E949B0420E030E04AE754E40E94F303FA
:1004B00060930A0170930B0180930C0190930D01DE
:1004C000C0920E01D0920F01E0921001F092110142
:1004D00030927C0080917A00806480937A008091D1
:1004E0007A0086FDFCCF6091780070917900072E2C
:1004F000000C880B990B0E949D049B01AC0160E0ED
:1005000070E080E094E40E9481036B017C014090E4
:100510000A0150900B0160900C0170900D01A30135
:1005200092010E94520520910601309107014091ED
:100530000801509109010E9482034B015C018092E5
:10054000060190920701A0920801B0920901209142
:100550000201309103014091040150910501C7014E
:10056000B6010E948103A30192010E94F3036983F3
:100570007A838B839C83A7019601C701B6010E94F1
:1005800082032B013C012AE037ED43E25CE3C50125
:10059000B4010E9452059B01AC01C301B2010E944B
:1005A00082039B01AC0169817A818B819C810E94CD
:1005B00082034B015C01C0920201D0920301E092E0
:1005C0000401F09205010E9465049B0177FF04C0BD
:1005D00022273327261B370B2F3F310511F00CF054
:1005E0004DC0309301012093000120E030E0A901CB
:1005F000C701B6010E944D0518160CF046C020E058
:1006000030E040E251E4C701B6010E94EE0387FFEB
:1006100047C070E060E086E00E94ED0070E060E0BE
:1006200085E00E94ED000E944A014B015C018AE0D6
:10063000C82ED12CE12CF12C0E944A0168197909AD
:100640008A099B09683E734081059105A8F351E032
:10065000C51AD108E108F10888EE880E83E0981EDB
:10066000A11CB11CC114D104E104F10429F7011546
:10067000110509F4FACE0E940000F7CE4FEF50E0CA
:100680005093010140930001B0CF20E030E040E200
:1006900051ECC701B6010E944D0518160CF4B9CFF4
:1006A000E0900001F090010120E030E0A901C501D7
:1006B000B4010E944D051816B4F461E088E00E9470
:1006C000700060E089E00E94700061E08AE00E94B2
:1006D000700060E08BE00E947000B70186E00E942D
:1006E000ED00B7019DCF60E088E00E94700061E0FE
:1006F00089E00E94700060E08AE00E94700061E082
:10070000E9CF5058BB27AA270E9499030C941305E0
:100710000E94050538F00E940C0520F039F49F3F37
:1007200019F426F40C9402050EF4E095E7FB0C9402
:10073000FC04E92F0E94240558F3BA1762077307D7
:100740008407950720F079F4A6F50C9446050EF47D
:10075000E0950B2EBA2FA02D0B01B90190010C01D1
:10076000CA01A0011124FF27591B99F0593F50F4E9
:10077000503E68F11A16F040A22F232F342F442741
:10078000585FF3CF469537952795A795F040539539
:10079000C9F77EF41F16BA0B620B730B840BBAF009
:1007A0009150A1F0FF0FBB1F661F771F881FC2F774
:1007B0000EC0BA0F621F731F841F48F48795779588
:1007C0006795B795F7959E3F08F0B0CF9395880F42
:1007D00008F09927EE0F9795879508950E94D80401
:1007E00008F481E008950E9407040C9413050E9408
:1007F0000C0558F00E94050540F029F45F3F29F0F0
:100800000C94FC0451110C9447050C9402050E94B1
:10081000240568F39923B1F3552391F3951B550BE8
:10082000BB27AA2762177307840738F09F5F5F4FC3
:10083000220F331F441FAA1FA9F335D00E2E3AF002
:10084000E0E832D091505040E695001CCAF72BD01A
:10085000FE2F29D0660F771F881FBB1F261737076B
:100860004807AB07B0E809F0BB0B802DBF01FF279D
:1008700093585F4F3AF09E3F510578F00C94FC047A
:100880000C9447055F3FE4F3983ED4F38695779543
:100890006795B795F7959F5FC9F7880F911D969556
:1008A000879597F90895E1E0660F771F881FBB1FB2
:1008B000621773078407BA0720F0621B730B840B5F
:1008C000BA0BEE1F88F7E09508950E946C046894B7
:1008D000B1110C94470508950E942C0588F09F578C
:1008E00098F0B92F9927B751B0F0E1F0660F771F54
:1008F000881F991F1AF0BA95C9F714C0B13091F04A
:100900000E944605B1E008950C944605672F782FA4
:100910008827B85F39F0B93FCCF38695779567950E
:10092000B395D9F73EF490958095709561957F4F7A
:100930008F4F9F4F0895E89409C097FB3EF4909520
:100940008095709561957F4F8F4F9F4F9923A9F0A8
:10095000F92F96E9BB279395F69587957795679537
:10096000B795F111F8CFFAF4BB0F11F460FF1BC07B
:100970006F5F7F4F8F4F9F4F16C0882311F096E90E
:1009800011C0772321F09EE8872F762F05C06623BC
:1009900071F096E8862F70E060E02AF09A95660F75
:1009A000771F881FDAF7880F9695879597F908952E
:1009B000990F0008550FAA0BE0E8FEEF1616170670
:1009C000E807F907C0F012161306E407F50798F0D8
:1009D000621B730B840B950B39F40A2661F0232BF1
:1009E000242B252B21F408950A2609F4A140A6956D
:1009F0008FEF811D811D089597F99F6780E870E052
:100A000060E008959FEF80EC089500240A94161684
:100A1000170618060906089500240A9412161306EC
:100A2000140605060895092E0394000C11F488237A
:100A300052F0BB0F40F4BF2B11F460FF04C06F5F96
:100A40007F4F8F4F9F4F089557FD9058440F551F6C
:100A500059F05F3F71F04795880F97FB991F61F040
:100A60009F3F79F087950895121613061406551FB7
:100A7000F2CF4695F1DF08C0161617061806991F23
:100A8000F1CF86957105610508940895E894BB2718
:100A900066277727CB0197F908950E94D80408F4B8
:100AA0008FEF08950E9465050C9413050E940505BB
:100AB00038F00E940C0520F0952311F00C94FC04F2
:100AC0000C94020511240C9447050E94240570F330
:100AD000959FC1F3950F50E0551F629FF001729FE3
:100AE000BB27F00DB11D639FAA27F00DB11DAA1FF2
:100AF000649F6627B00DA11D661F829F2227B00D3F
:100B0000A11D621F739FB00DA11D621F839FA00DC9
:100B1000611D221F749F3327A00D611D231F849F19
:100B2000600D211D822F762F6A2F11249F57504070
:100B30009AF0F1F088234AF0EE0FFF1FBB1F661FEB
:100B4000771F881F91505040A9F79E3F510580F0B4
:100B50000C94FC040C9447055F3FE4F3983ED4F3F7
:100B6000869577956795B795F795E7959F5FC1F758
:100B7000FE2B880F911D9695879597F90895F89407
:020B8000FFCFA5
:00000001FF
